:020000040800F2
:10000000C8040020D5000008D901000889010008B3
:1000100000000000000000000000000000000000E0
:10002000000000000000000000000000DD010008EA
:100030000000000000000000DB010008DF010008F4
:10004000E7000008E7000008E7000008E7000008F4
:10005000E7000008E7000008E7000008E7000008E4
:1000600000000000E7000008E700000800000000B2
:10007000E7000008E7000008E700000800000000B3
:10008000E7000008E700000800000000E7000008A3
:1000900000000000E7000008E7000008E700000893
:1000A00000000000E7000008E7000008E700000883
:1000B000E700000800000000E70000080000000062
:1000C0000348854600F034F8004800476101000805
:1000D000C80400200448804704480047FEE7FEE7C4
:1000E000FEE7FEE7FEE7FEE7E1010008C1000008C9
:1000F00070B50446002903D000202022012310E01F
:10010000002801D00020C043C046C0460DE025466F
:10011000D5408D4205D30D469540641B1D46954044
:1001200040191546521E002DF1DC214670BD00001D
:100130001CB5094800900948019005460126009C1D
:1001400005E0E36807CC33430C3C98471034AC42DD
:10015000F7D3FFF7B9FF0000B4020008D40200088B
:1001600080B5002007490122D306C3580B50001D5B
:10017000C028F8D150072549086000F049F8002050
:1001800080BDC04600000020FEE7000080B57D2154
:10019000C900FFF7ADFF401E0E494860002088608F
:1001A0000520086080BDC046014908607047C04610
:1001B000C000002081B007490A680092401C01D3AA
:1001C0000020C043009A0A68D203D2171018FAD14F
:1001D00001B0704710E000E070477047704770470B
:1001E00007480168074A0A40074909681143012284
:1001F00053030B430360D006044908607047C046B0
:10020000041002400000FFFF040FFF1F08ED00E094
:1002100082B0012529021D4E3046083802680A4383
:10022000026001684905FCD50F2000023168814356
:100230003160316807208143316031688906490F98
:10024000FBD10003316881433160114C2046FFF738
:100250009DFF2046FFF7A8FFF06A2843F062F06A8E
:100260002840019001980320800505210C07216892
:100270008143A80508182060ED02A5616420FFF7FE
:1002800099FF606968406061F8E7C0460810024065
:1002900000127A0002E008C8121F08C1002AFAD131
:1002A00070477047002001E001C1121F002AFBD1F6
:1002B00070470000D802000800000020C8000000BD
:1002C00094020008A0030008C800002000040000F9
:1002D000A402000800000000000000000000000070
:1002E000000000000000000000000000000000000E
:1002F00000000000000000000000000000000000FE
:1003000000000000000000000000000000000000ED
:1003100000000000000000000000000000000000DD
:1003200000000000000000000000000000000000CD
:1003300000000000000000000000000000000000BD
:1003400000000000000000000000000000000000AD
:10035000000000000000000000000000000000009D
:10036000000000000000000000000000000000008D
:10037000000000000000000000000000000000007D
:10038000000000000000000000000000000000006D
:10039000000000000000000000127A0000000000D1
:04000005080000C12E
:00000001FF
