:020000040800F2
:10000000D0040020D500000889020008D5010008AE
:1000100000000000000000000000000000000000E0
:100020000000000000000000000000008D02000839
:1000300000000000000000008B0200088F02000892
:10004000E7000008E7000008E7000008E7000008F4
:10005000E7000008E7000008E7000008E7000008E4
:1000600000000000E7000008E700000800000000B2
:10007000E7000008E7000008E700000800000000B3
:10008000E7000008E700000800000000E7000008A3
:1000900000000000E7000008E7000008E700000893
:1000A00000000000E7000008E7000008E700000883
:1000B000E700000800000000E70000080000000062
:1000C0000348854600F034F8004800476101000805
:1000D000D00400200448804704480047FEE7FEE7BC
:1000E000FEE7FEE7FEE7FEE791020008C100000818
:1000F00070B50446002903D000202022012310E01F
:10010000002801D00020C043C046C0460DE025466F
:10011000D5408D4205D30D469540641B1D46954044
:1001200040191546521E002DF1DC214670BD00001D
:100130001CB5094800900948019005460126009C1D
:1001400005E0E36807CC33430C3C98471034AC42DD
:10015000F7D3FFF7B9FF000038050008580500087D
:1001600080B5002007490122D306C3580B50001D5B
:10017000C028F8D150075049086000F01FF900204E
:1001800080BDC0460000002081B00B4A13680121E9
:100190000B43136012680A40009280000C4A10580A
:1001A000009A026803239B059A438B05D2180260CC
:1001B000C902816101B070473410024080000449D7
:1001C000085841690122D2024A4042617047C04644
:1001D000C0000020FEE7000080B57D21C900FFF7C8
:1001E00087FF401E2749486000208860052008607E
:1001F00080BDC04670B50146154A136800209B01BA
:1002000025D45368DD0A1C231D40124C6559124E3B
:10021000B5421CD35568ED0A1D406559A24EB54242
:1002200015D85068C00A18402058400001231468AF
:10023000640507D49C021D0216682E4316601568DB
:100240002542FCD0D4689C43D46000F037F870BDE0
:1002500000100240180500080024F40094490860CA
:100260007047C04681B007490A680092401C01D31C
:100270000020C043009A0A68D203D2171018FAD19E
:1002800001B0704710E000E070477047704770475A
:1002900007480168834A0A40064909681143012258
:1002A00053030B430360D006034908607047C04600
:1002B00004100240040FFF1F08ED00E0F0B581B00C
:1002C000009109688A093C2313403A4AD2581F23F7
:1002D0001340D840764F3A6882421FD2724A0127B3
:1002E000002390423E4600D81E46334D2C68BC4346
:1002F000A4192C60DE43904201D8002300E00123C2
:100300002F685F40FB0703D0731C002E1E46F2D1FE
:100310000122BA43664F002A03D126E00122002AB7
:1003200023D001231B065C4D2E46083E34681C4337
:10033000346033689B01FCD50F231B022C689C435F
:100340000C432C60296802230B4305218B432B604F
:10035000296838230B40102BFAD1072109032B6899
:100360008B430099496819432960396881421BD938
:100370004D490125002488422B4600D823460E4AC9
:100380001668AE43F3181360E443884201D8002393
:1003900000E0012315685D40EB0703D0631C002CCF
:1003A0001C46F2D10122AA43002A00D03860104630
:1003B00001B0F0BDD80400080020024084B001273D
:1003C0003A02354E30460838016802921143016006
:1003D00032490968324A0A40311F0B68314C1C40CF
:1003E0001219FB03D2180A607D21CC002146183176
:1003F00002680A42FAD00F2001900002316881435E
:100400003160316807208143316031688906490FC6
:10041000FBD10003316881433160234D2846FFF74B
:10042000DBFE2846FFF71AFF2048FFF7E3FE2048CF
:100430000068FFF7D1FE0020FFF7A6FEF06A384300
:10044000F062F06A384003900398052000070268C4
:1004500018490A407B04D21802604268029B9A4302
:10046000426003221204836813438360C2680A4017
:10047000C260416A019A9143416277200006316867
:1004800081433806081830600020FFF797FE2046A9
:10049000FFF7E8FEF8E7C04608100240100FFF1F04
:1004A000FF1F00000000FFFF00366E01C8000020A3
:1004B000C4000020FFFFFCFF02E008C8121F08C1B3
:1004C000002AFAD170477047002001E001C1121FD5
:1004D000002AFBD17047000000000000000000006F
:1004E000000000000000000000000000000000000C
:1004F00000000000000000000100000002000000F9
:1005000003000000040000000600000007000000D7
:10051000080000000900000000093D0000127A00F8
:100520000024F4004086510100366E0100093D00B0
:1005300000093D0000093D005805000800000020AA
:10054000D0000000B804000828060008D0000020F1
:1005500000040000C80400080000000000000000C3
:10056000000000000000000000000000000000008B
:10057000000000000000000000000000000000007B
:10058000000000000000000000000000000000006B
:10059000000000000000000000000000000000005B
:1005A000000000000000000000000000000000004B
:1005B000000000000000000000000000000000003B
:1005C000000000000000000000000000000000002B
:1005D000000000000000000000000000000000001B
:1005E000000000000000000000000000000000000B
:1005F00000000000000000000000000000000000FB
:1006000000000000000000000000000000000000EA
:1006100000000000000000000000005000127A00FE
:0806200000080000004000008A
:04000005080000C12E
:00000001FF
