:020000040800F2
:1000000078090020D500000805070008C50400088D
:1000100000000000000000000000000000000000E0
:10002000000000000000000000000000270700089A
:100030000000000000000000250700082907000854
:10004000E7000008E7000008E7000008E7000008F4
:10005000E7000008E7000008E7000008E7000008E4
:1000600000000000E7000008E700000800000000B2
:10007000E7000008E7000008E700000800000000B3
:10008000E7000008E7000008000000006107000822
:1000900000000000E7000008E7000008E700000893
:1000A00000000000E7000008E7000008E700000883
:1000B000E700000800000000E70000080000000062
:1000C0000348854600F046F80048004785010008CF
:1000D000780900200448804704480047FEE7FEE70F
:1000E000FEE7FEE7FEE7FEE731070008C100000873
:1000F000D2B201E00270401C491EFBD270470022C0
:10010000F6E710B513460A4604461946FFF7F0FF16
:10011000204610BD70B50446002903D000202022DF
:10012000012310E0002801D00020C043C046C04693
:100130000DE02546D5408D4205D30D469540641B04
:100140001D46954040191546521E002DF1DC2146F2
:1001500070BD00001CB50948009009480190054693
:100160000126009C05E0E36807CC33430C3C98472C
:100170001034AC42F7D3FFF7A7FF0000380D00089A
:10018000580D000880B5002007490122D306C35846
:100190000B50001DC028F8D150070449086000F03A
:1001A0003BFC002080BDC0460000002008ED00E0C0
:1001B000F0B58DB022498868012630438860886890
:1001C0003040079007987205029208691043086151
:1001D0000869104007900798062001900C900B9634
:1001E0000A960227099708977002079005200407CE
:1001F00007AD2046294600F066F901980C900B9651
:100200000A9609970897B00207902046294600F001
:100210005AF90B490868029A10430860086890432D
:1002200008600020069078200590B00304900548EF
:100230000390974803A900F09FF90DB0F0BDC046A8
:100240002C100240A0860100F0B582B00125EE021C
:100250008F4B1C680096B4431C608E4C22808E4EDF
:1002600030608E4802220260AF021A683A431A6078
:100270008B4A116029021868084318605869C00742
:10028000FCD030681969FE26B143C0B20843284348
:10029000186158698007FCD5690220884E4D0028F6
:1002A00011D02088012818D118682840186072B62B
:1002B000586901900198986901900198186808435D
:1002C000186062B62DE05869019001989869019014
:1002D000019818680843186023E020881E680228E7
:1002E0000ED1009806431E6072B6586901900198BD
:1002F00098690190019818682840186062B610E06B
:100300003E431E60586901900198986901900198D8
:1003100007E0186930701068401C10602088401E8B
:1003200020802088002851D02088042806D22088E8
:10033000012813D158694006FCD543E058694006AE
:10034000FCD510681E6906702088401E2080106849
:10035000461C166058694007E3D5DAE72088022872
:1003600011D158694007FCD572B618680843186067
:1003700010681E6906701068401C10602088401EBE
:10038000208062B61EE058694007FCD518682840F6
:10039000186072B610681E6906701068461C1660F8
:1003A0002088401E208058694007FCD51868084303
:1003B0001860186930701068401C10602088401E5A
:1003C000208062B610681E690670A4E700203349D9
:1003D000086002B0F0BDC046FFFBFFFFF0B581B082
:1003E0000124E5022A4B1E68AE431E60294D2A8077
:1003F000294E306029480460294A116021021F6893
:100400000F431F605969C907FCD03168FE260E40B2
:100410001F69FF218F43BE191E615E69B607FCD5B7
:100420005E690096009E9E690096009E16682F8861
:10043000002F23D05F693F06FCD5377818698843C1
:10044000C01918612888401E2880771C17605869D9
:1004500040070CD52888002809D070781F698F4381
:1004600038181861B71C17602888401E2880586902
:100470004007FCD5288800283E46DBD16002196879
:100480000143196000200549086001B0F0BDC04675
:1004900000540040FA040020F0000020F404002082
:1004A000280500200020064902E00830182805D061
:1004B0000A5C002AF9D0521E0A54F6E77047C0467B
:1004C000C0000020FEE7F0B582B00D460B68002B9F
:1004D00044D0002200950EE069696443644361439F
:1004E0000F236343446A9C430C434462521C2B68B1
:1004F0001C46D44032D0012494401C40F6D0234600
:10050000634369681E464E4303275F430568BD4346
:1005100035430560FE4301914D1E012D06D8009D17
:10052000AD685D43876837402F4387603146009E42
:1005300035695D43C7680F402F43C76001990229A1
:100540003546D3D1240AC7D15B43696959430F2487
:100550005C43036AA3430B430362C7E76968491E10
:10056000012905D8E968594342689A430A43426021
:10057000002002B0F0BD0000F0B587B00E46044682
:100580000068012102918843206004A800F06EF801
:100590002B4906980190FFF7BDFD07463F20C54354
:1005A00060682840384360604B20800078437D219C
:1005B000C900FFF7AFFD23494B1C039632689A42EE
:1005C00000D30746781C236A2B40034323621E4F47
:1005D0008A4205D903984568002D0AD0192109E0FF
:1005E00051000198FFF796FD384200D10420029B8C
:1005F0000DE0032151430198FFF78CFDF91C0842DF
:10060000029B194600D001460D43D8032843E169F7
:100610000E4A0A400243E261A068FE218843039A21
:1006200091680143A1602068184320609802216806
:100630008143D06808432060002007B0F0BDC04669
:1006400040420F00A0860100FC0F00000030FFFFB9
:1006500080B57D21C900FFF75DFD401EED49486072
:10066000002088600520086080BDC04610B5D649CE
:100670000A689206520F012A0DD0022A0DD14A684B
:10068000D20718D10A1F1268D20A1C231340174A36
:10069000D258520010E0134A0EE00A1F1268D20A24
:1006A0001C231340114AD2580B46083B1B689B047D
:1006B0005B0FDA4000E00C4A02600B689B093C24A7
:1006C0001C400B4B1B591F242340DA404260096831
:1006D000890A1C230B400749C9582140CA4082603F
:1006E00010BDC04600366E01006CDC02180D00081B
:1006F000B80C0008F80C0008014908607047C046B3
:10070000D80000207047000080B501208102044815
:10071000FFF7F5FCFFF74CFDC82000F0F1F880BDB5
:10072000F40000207047704780B500F077F880BD76
:1007300007480168074A0A4007490968114301222E
:1007400053030B430360D006044908607047C0465A
:10075000041002400000FFFF040FFF1F08ED00E03F
:1007600080B507480168C90708D0011F0968C90793
:1007700004D00121C943016000F004F880BDC046E7
:10078000102000401B480078002832D01A48016829
:10079000002906D00168491E016002D117480121D5
:1007A00001700020164902E00C3030280FD00A18E2
:1007B0005368002BF8D053685B1E5360F4D10123BB
:1007C00053700B5C012BEFD193685360ECE70D483D
:1007D0000168491C016001680B4A914201D1002166
:1007E00001600A480178491CCAB2092A00D90021CF
:1007F000017070471005002064050020600500208E
:10080000300500200C050020FFFFFF7FF8040020CA
:100810007047401EFDD270477047000010B5494830
:10082000016803230A469A434C1C1C40A31803602A
:10083000002C21D08B031B0C05D0104A0A40104B12
:10084000C91819408A180260FFF72CFE0D4800688D
:10085000002811D00C4904E0D2180280406800281A
:100860000AD00288D30703D18A42F7D00223F3E7E4
:10087000022A0B46F0D2F1E710BDC0460000FCFF93
:10088000FCFF030074050020FEFF000070B586B079
:10089000144CA0420ED05B4CA04207D00524240784
:1008A000A0421DD1104C2568012606E00E4C25689B
:1008B000022602E00C4C256820263543256024687A
:1008C00034400094009C0C9C0B9D0A9E059404955A
:1008D00001AC4CC401228A4000926946FFF7F3FD47
:1008E00006B070BD001400503410024080B50A46B6
:1008F0000146401E8141434800F034F880BDC046A7
:1009000010B56749096889070CD4002819D07D21E2
:10091000CC004443FFF77CFF6420FFF77AFF641E9E
:10092000F8D10EE0074C2168074A0A4081005118AF
:100930002160002805D0FFF76BFF20688003000CC2
:10094000F9D110BD2C0500200300FCFF10B50028D4
:1009500007D00446FFF75CFF6420FFF75AFF641ED0
:10096000F8D110BD002A01D1282200E0182201236D
:100970008B4083507047000010B5012002021248DE
:10098000014608390B6813430B600A685205FCD511
:100990000F21090202688A430260026807218A4324
:1009A000026002689206520FFBD1090302688A4373
:1009B0000260064C2046FFF74BFE2046FFF79CFEE8
:1009C00000F05CF810BDC0460810024000127A002A
:1009D000F0B583B000250124009401950295094EDD
:1009E00002273046294622463B46FFF74FFF009438
:1009F000019502953046214622463B46FFF746FFC9
:100A000003B0F0BD000400502548006802210140F9
:100A10004808704710E000E080B5FFF7ADFF00F038
:100A200003F8002080BD0000124C134DFFF7ECFFCF
:100A3000002802D0002020800DE00120FFF786FF73
:100A40002088401C208080B2C0087D2803D300206D
:100A50002080FFF7E3FE002602E00836182EE5D0DE
:100A6000A85D0028F9D1A9194878A8554968884790
:100A7000F3E7C04624050020C000002008480949CB
:100A80004160FF210906084A13688B430321890747
:100A90005918116000218160072101607047C0462C
:100AA00010E000E07FBB000020ED00E0F0B581B079
:100AB000002801D00C2700E00427754EF25B511886
:100AC000F153002801D00E2500E00625715D16299E
:100AD0003DD88A0001A39A589746C046390B0008B2
:100AE0004F0B00084F0B00084F0B00084F0B00087E
:100AF0004F0B00084F0B00084F0B00084F0B00086E
:100B00004F0B00085B0B00084F0B00084F0B000851
:100B10004F0B00084F0B00084F0B00084F0B00084D
:100B20004F0B00084F0B00084F0B0008530B000839
:100B3000650B00087B0B0008002800D008363078D1
:100B4000022832D001283BD151480A213AE0012144
:100B500004E000281DD00A201CE00021FFF7C6FE9B
:100B600001B0F0BD00242146FFF7C0FEF05BC828AD
:100B7000F6D3F453705D401C1FE00121FFF7B6FE71
:100B8000F05BC828ECD3142070550020F05301B05E
:100B9000F0BD0220325A3F4B9A4203D0002A07D1BF
:100BA000FF200AE00020F05306E03948142109E054
:100BB0000023F353521E3252481C705501B0F0BD51
:100BC0003348FF21415501B0F0BDC04610B50F4C70
:100BD0002078012807D0002816D1FFF795FD20784E
:100BE000401C207010BD782009490F22FFF7F6FB4A
:100BF000084C20680028FCD1782007490F22FFF715
:100C000023FB20680028FCD110BDC0466C050020E5
:100C1000DC000020F4040020FC04002070470000E9
:100C200070B504461848017809190170174D2878E5
:100C3000002808D000202146FFF738FF0120214678
:100C4000FFF734FF70BD124C002626606660A66078
:100C5000E660FFF7BDFE21780E48012902D16188C8
:100C6000814203D02660608001212170217A02290F
:100C700002D16189814203D0A66060810220207286
:100C80000120287070BDC046680500207005002056
:100C900014050020FFFF000002E008C8121F08C171
:100CA000002AFAD170477047002001E001C1121FED
:100CB000002AFBD170470000000000000000000087
:100CC0000000000000000000000000000000000024
:100CD0000000000000000000010000000200000011
:100CE00003000000040000000600000007000000F0
:100CF00008000000090000000000000000000000E3
:100D000000000000000000000100000002000000E0
:100D1000030000000400000000093D0000127A00FA
:100D20000024F4004086510100366E0100093D00A8
:100D300000093D0000093D00580D0008000000209A
:100D4000F0000000980C0008480E0008F000002099
:100D500088080000A80C0008000000000000000047
:100D60000000000000000000000000000000000083
:100D70000000000000000000000000000000000073
:100D80000000000000000000000000000000000063
:100D90000000000000000000000000000000000053
:100DA0000000000000000000000000000000000043
:100DB0000000000000000000000000000000000033
:100DC0000000000000000000000000000000000023
:100DD0000000000000000000000000000000000013
:100DE0000000000000000000000000000000000003
:100DF00000000000000000000000000000000000F3
:100E000000000000000000000000000000000000E2
:100E10000000000000000000000000001D0C0008A1
:100E200005050000CD0B00080A0A0000210C00088F
:100E300000127A000102030405060708090A0B0CD8
:080E40000D0E0F000000000080
:04000005080000C12E
:00000001FF
