:020000040800F2
:10000000C8040020D5000008B901000889010008D3
:1000100000000000000000000000000000000000E0
:10002000000000000000000000000000BD0100080A
:100030000000000000000000BB010008BF01000834
:10004000E7000008E7000008E7000008E7000008F4
:10005000E7000008E7000008E7000008E7000008E4
:1000600000000000E7000008E700000800000000B2
:10007000E7000008E7000008E700000800000000B3
:10008000E7000008E700000800000000E7000008A3
:1000900000000000E7000008E7000008E700000893
:1000A00000000000E7000008E7000008E700000883
:1000B000E700000800000000E70000080000000062
:1000C0000348854600F034F8004800476101000805
:1000D000C80400200448804704480047FEE7FEE7C4
:1000E000FEE7FEE7FEE7FEE7C1010008C1000008E9
:1000F00070B50446002903D000202022012310E01F
:10010000002801D00020C043C046C0460DE025466F
:10011000D5408D4205D30D469540641B1D46954044
:1001200040191546521E002DF1DC214670BD00001D
:100130001CB5094800900948019005460126009C1D
:1001400005E0E36807CC33430C3C98471034AC42DD
:10015000F7D3FFF7B9FF000080030008A0030008F1
:1001600080B5002007490122D306C3580B50001D5B
:10017000C028F8D150071C49086000F037F800206B
:1001800080BDC04600000020FEE7000080B57D2154
:10019000C900FFF7ADFF401E03494860002088609A
:1001A0000520086080BDC04610E000E001490860FD
:1001B0007047C046C00000207047704770477047C6
:1001C00007480168634A0A40064909681143012249
:1001D00053030B430360D006034908607047C046D1
:1001E00004100240040FFF1F08ED00E082B001255B
:1001F0002902554E3046083802680A4302605349C6
:100200000968534A0A40311F0B68524C1C401219AE
:10021000EB03D2180A6001684905FCD50F200002E3
:100220003168814331603168072081433160316832
:100230008906490FFBD10003316881433160464C88
:100240002046FFF7A3FF2046FFF7B0FFF06A2843E0
:10025000F062F06A284001900198032081053F4830
:100260000246183A13688B43AC051B19136002460B
:10027000103A13680B431360E902EA06016002605A
:100280000160026001600260016002600160026062
:100290000160026001600260016002600160026052
:1002A0000160026001600260016002600160026042
:1002B0000160026001600260016002600160026032
:1002C0000160026001600260016002600160026022
:1002D0000160026001600260016002600160026012
:1002E0000160026001600260016002600160026002
:1002F00001600260016002600160026001600260F2
:1003000001600260016002600160026001600260E1
:1003100001600260016002600160026001600260D1
:1003200001600260016002600160026001600260C1
:1003300001600260016002600160026001600260B1
:10034000016002609AE7C04608100240100FFF1FCC
:10035000FF1F00000000FFFF00366E011800005074
:1003600002E008C8121F08C1002AFAD1704770477E
:10037000002001E001C1121F002AFBD170470000DC
:10038000A003000800000020C8000000600300086F
:1003900068040008C8000020000400007003000882
:1003A000000000000000000000000000000000004D
:1003B000000000000000000000000000000000003D
:1003C000000000000000000000000000000000002D
:1003D000000000000000000000000000000000001D
:1003E000000000000000000000000000000000000D
:1003F00000000000000000000000000000000000FD
:1004000000000000000000000000000000000000EC
:1004100000000000000000000000000000000000DC
:1004200000000000000000000000000000000000CC
:1004300000000000000000000000000000000000BC
:1004400000000000000000000000000000000000AC
:10045000000000000000000000000000000000009C
:0804600000127A000000000008
:04000005080000C12E
:00000001FF
