:020000040800F2
:10000000F8040020D5000008F5060008AD0400083B
:1000100000000000000000000000000000000000E0
:10002000000000000000000000000000F9060008C9
:100030000000000000000000F7060008FB060008B2
:10004000E7000008E7000008E7000008E7000008F4
:10005000E7000008E7000008E7000008E7000008E4
:1000600000000000E7000008E700000800000000B2
:10007000E7000008E7000008E700000800000000B3
:10008000E7000008E700000800000000E7000008A3
:1000900000000000E7000008E7000008AF040008C7
:1000A00000000000E7000008E7000008E700000883
:1000B000E700000800000000E70000080000000062
:1000C0000348854600F034F8004800476101000805
:1000D000F80400200448804704480047FEE7FEE794
:1000E000FEE7FEE7FEE7FEE7FD060008C1000008A8
:1000F00070B50446002903D000202022012310E01F
:10010000002801D00020C043C046C0460DE025466F
:10011000D5408D4205D30D469540641B1D46954044
:1001200040191546521E002DF1DC214670BD00001D
:100130001CB5094800900948019005460126009C1D
:1001400005E0E36807CC33430C3C98471034AC42DD
:10015000F7D3FFF7B9FF000084090008A4090008DD
:1001600080B5002007490122D306C3580B50001D5B
:10017000C028F8D150070449086000F0D7FA0020E1
:1001800080BDC0460000002008ED00E070B581B0E1
:1001900001214A029D480369DB0702D0036813422C
:1001A00040D103699B0702D5036813426CD14469AF
:1001B000036964071AD45B0643D503685B0540D521
:1001C00003695B073DD4944B1C88042C00D2C0E02B
:1001D000924A1468C56825701C88641E1C801468C7
:1001E000641C14601A88032A71D1ACE01B0637D551
:1001F00003685B0534D503695B0731D4864A1388ED
:10020000002B00D19FE085490B681C78C568FF264C
:10021000B5432C19C460581C08601088401E10801B
:1002200001B070BD7A4A13687A4A1268012B47D12F
:10023000FE210A40C168FF2399438918C16001B0BB
:1002400070BD03695B0742D5036813423FD0724B10
:100250001C88042C47D1890202688A430260BDE0F1
:1002600003695B0733D50368134230D06A4B1C889F
:10027000002C58D069490A681478C568FF26B54330
:100280002C19C460501CAFE0614B1B68022B00D0DE
:10029000B3E0614B1C88002C1BD01C88012C2ED194
:1002A0008902031F1C688C431C600169009100993E
:1002B00040690090009818681043186001B070BD44
:1002C000C368FE24A343D2B21A430A43C26001B0FA
:1002D00070BD016900910099416900910099001F6A
:1002E0000168114377E01C88032C52D101684C4A05
:1002F00011400160011F0C6814400C606EE01C8806
:10030000021F1368022C75D1CC02234313600369CA
:100310000093009B40690090009888021168814317
:10032000116001B070BD0368934303608B020468E1
:100330009C430460090203688B430360001F01684B
:100340001143016045E0890202688A43026001B0FE
:1003500070BD1C88012C02D01C88002CB7D1041F52
:1003600025682F4E35402560046894430460026878
:1003700032400260090202688A43026027490A6823
:10038000C06810701888401E18800868401C0860FB
:100390001FE01C88022C21D1041F2568154325600D
:1003A0001E4C2568C6682E701D886D1E1D80256830
:1003B0006E1C2660C6686E701D886D1E1D800368E9
:1003C00093430360090202688A4302602068401C6C
:1003D00020600F480021016001B070BD0F490A681C
:1003E000C06810700868401C08601888401E18809B
:1003F00001B070BD89020B4313600169009100993F
:1004000040690090009801B070BDC046045400409F
:10041000DC000020D8000020E0000020F4000020D4
:10042000FFFBFFFF80001C4908580069C004C00F93
:100430007047C04610B581B0002808D1154A13682E
:10044000012423431360126822400092009A800026
:10045000114A10580268114B1A400260C2681A40D3
:10046000C260012914D1012000030D49CA6F024363
:10047000CA670A6802430A60FF20000609490A6841
:10048000824303208007101808600748802101601C
:1004900001B010BD34100240C0000020FFFFFFFC7F
:1004A0000418024004E400E000E100E0FEE780B54B
:1004B000FFF76CFE80BDF0B582B00D460B68002BD7
:1004C00044D0002200950EE06969644364436143AF
:1004D0000F236343446A9C430C434462521C2B68C1
:1004E0001C46D44032D0012494401C40F6D0234610
:1004F000634369681E464E4303275F430568BD4357
:1005000035430560FE4301914D1E012D06D8009D27
:10051000AD685D43876837402F4387603146009E52
:1005200035695D43C7680F402F43C76001990229B1
:100530003546D3D1240AC7D15B43696959430F2497
:100540005C43036AA3430B430362C7E76968491E20
:10055000012905D8E968594342689A430A43426031
:10056000012002B0F0BD0000F0B587B00D46044692
:100570000068012102918843206004A800F06EF811
:100580002B4906980190FFF7B3FD06463F20C7436D
:1005900060683840304360604B20800070437D21AC
:1005A000C900FFF7A5FDC6494B1C03952A689A426E
:1005B00000D30646701C236A3B40034323621D4E52
:1005C0008A4205D903984768002F0AD0192109E00B
:1005D00051000198FFF78CFD304200D10420029BAE
:1005E0000DE0032151430198FFF782FDF11C084201
:1005F000029B194600D001460F43D8033843E169F6
:100600000D4A0A400243E261A068FE218843039A32
:1006100091680143A1602068184320609802216816
:100620008143D06808432060184607B0F0BDC0463B
:1006300040420F00FC0F00000030FFFF80B57D211D
:10064000C900FFF755FD401E03494860002088603F
:100650000520086080BDC04610E000E010B5944958
:100660000A689206520F012A0DD0022A0DD14A685B
:10067000D20718D10A1F1268D20A1C231340174A46
:10068000D258520010E0134A0EE00A1F1268D20A34
:100690001C231340114AD2580B46083B1B689B048D
:1006A0005B0FDA4000E00C4A02600B689B093C24B7
:1006B0001C400B4B1B591F242340DA404260096841
:1006C000890A1C230B400749C9582140CA4082604F
:1006D00010BDC04600366E01006CDC0264090008E3
:1006E0000409000844090008014908607047C04631
:1006F000C400002070477047704770470748016882
:10070000074A0A40074909681143012253030B4372
:100710000360D006044908607047C04604100240D8
:100720000000FFFF040FFF1F08ED00E094B001235D
:100730001A025F4C20460838016809921143016093
:1007400007939F0201683942FCD00F2008900002F5
:10075000216881432160216807208143216021684D
:100760008906490FFBD10003216881432160514D67
:100770002846FFF763FF2846FFF7B6FF00200490E6
:100780000146FFF757FEE06A079D2843E062E06AF2
:1007900028400E900E9869050391606B08436063D2
:1007A000606B08400E900E980620059013901295ED
:1007B0001195022610960F96680206900E9005205D
:1007C000000702900EA90191FFF775FE059813909E
:1007D00012951195109605960F960E97029801990D
:1007E000FFF769FE606A039908436062606A8843A4
:1007F0006062FF20000630490A6882430A60E8050B
:100800002E49086004980D90A0260C96A8030B9022
:100810002B480A902B4D2C1F0AA92046FFF7A4FE57
:100820000020FFF7FFFD0128FAD020682649084084
:100830002060264908980880254806602548079AC0
:1008400002602268099B1A4322602A6806990A43BB
:100850002A602A683A432A601F49204A0A602A68A7
:100860001A432A600268002AFCD1226816490A400D
:100870002260089A15490A8015490E6005990160A1
:100880002168394321602168099A11432160296850
:10089000069B1943296029683943296010490E4B8A
:1008A000196029681143296001680029FCD1FEE71D
:1008B0000810024000127A0014E400E000E100E0B9
:1008C000A086010004540040FFF7FFFFE000002075
:1008D000D8000020DC000020F4000020C800002028
:1008E000E200002002E008C8121F08C1002AFAD165
:1008F00070477047002001E001C1121F002AFBD1A0
:100900007047000000000000000000000000000030
:1009100000000000000000000000000000000000D7
:1009200000000000010000000200000003000000C1
:10093000040000000600000007000000080000009E
:10094000090000000000000000000000000000009E
:100950000000000001000000020000000300000091
:100960000400000000093D0000127A000024F40099
:100970004086510100366E0100093D0000093D002E
:1009800000093D00A809000800000020D800000070
:10099000E4080008800A0008D800002020040000B5
:1009A000F408000800000000000000000000000043
:1009B0000000000000000000000000000000000037
:1009C0000000000000000000000000000000000027
:1009D0000000000000000000000000000000000017
:1009E0000000000000000000000000000000000007
:1009F00000000000000000000000000000000000F7
:100A000000000000000000000000000000000000E6
:100A100000000000000000000000000000000000D6
:100A200000000000000000000000000000000000C6
:100A300000000000000000000000000000000000B6
:100A400000000000000000000000000000000000A6
:100A50000000000000000000000000000000000096
:100A600000000000000000000000005000127A00AA
:100A70000102030405060708090A0B0C0D0E0F00FE
:04000005080000C12E
:00000001FF
